{
  "contractName": "PatientRegistry",
  "abi": [
    {
      "inputs": [],
      "stateMutability": "nonpayable",
      "type": "constructor"
    },
    {
      "anonymous": false,
      "inputs": [
        {
          "indexed": true,
          "internalType": "address",
          "name": "patient",
          "type": "address"
        },
        {
          "indexed": false,
          "internalType": "bytes32",
          "name": "allergyHash",
          "type": "bytes32"
        }
      ],
      "name": "AllergyAdded",
      "type": "event"
    },
    {
      "anonymous": false,
      "inputs": [
        {
          "indexed": true,
          "internalType": "uint256",
          "name": "appointmentId",
          "type": "uint256"
        },
        {
          "indexed": true,
          "internalType": "address",
          "name": "patient",
          "type": "address"
        }
      ],
      "name": "AppointmentCancelled",
      "type": "event"
    },
    {
      "anonymous": false,
      "inputs": [
        {
          "indexed": true,
          "internalType": "uint256",
          "name": "appointmentId",
          "type": "uint256"
        },
        {
          "indexed": true,
          "internalType": "address",
          "name": "patient",
          "type": "address"
        },
        {
          "indexed": true,
          "internalType": "address",
          "name": "doctor",
          "type": "address"
        },
        {
          "indexed": false,
          "internalType": "uint256",
          "name": "fee",
          "type": "uint256"
        }
      ],
      "name": "AppointmentCompleted",
      "type": "event"
    },
    {
      "anonymous": false,
      "inputs": [
        {
          "indexed": true,
          "internalType": "uint256",
          "name": "appointmentId",
          "type": "uint256"
        },
        {
          "indexed": true,
          "internalType": "address",
          "name": "patient",
          "type": "address"
        },
        {
          "indexed": true,
          "internalType": "address",
          "name": "doctor",
          "type": "address"
        },
        {
          "indexed": false,
          "internalType": "uint256",
          "name": "scheduledAt",
          "type": "uint256"
        },
        {
          "indexed": false,
          "internalType": "uint256",
          "name": "fee",
          "type": "uint256"
        },
        {
          "indexed": false,
          "internalType": "string",
          "name": "reason",
          "type": "string"
        }
      ],
      "name": "AppointmentCreated",
      "type": "event"
    },
    {
      "anonymous": false,
      "inputs": [
        {
          "indexed": true,
          "internalType": "uint256",
          "name": "appointmentId",
          "type": "uint256"
        },
        {
          "indexed": true,
          "internalType": "address",
          "name": "doctor",
          "type": "address"
        },
        {
          "indexed": false,
          "internalType": "enum PatientRegistry.AppointmentStatus",
          "name": "status",
          "type": "uint8"
        }
      ],
      "name": "AppointmentResponded",
      "type": "event"
    },
    {
      "anonymous": false,
      "inputs": [
        {
          "indexed": true,
          "internalType": "address",
          "name": "patient",
          "type": "address"
        },
        {
          "indexed": false,
          "internalType": "uint256",
          "name": "amount",
          "type": "uint256"
        }
      ],
      "name": "CoinsGranted",
      "type": "event"
    },
    {
      "anonymous": false,
      "inputs": [
        {
          "indexed": true,
          "internalType": "address",
          "name": "from",
          "type": "address"
        },
        {
          "indexed": true,
          "internalType": "address",
          "name": "to",
          "type": "address"
        },
        {
          "indexed": false,
          "internalType": "uint256",
          "name": "amount",
          "type": "uint256"
        }
      ],
      "name": "CoinsTransferred",
      "type": "event"
    },
    {
      "anonymous": false,
      "inputs": [
        {
          "indexed": true,
          "internalType": "address",
          "name": "patient",
          "type": "address"
        },
        {
          "indexed": true,
          "internalType": "address",
          "name": "doctor",
          "type": "address"
        },
        {
          "indexed": false,
          "internalType": "bool",
          "name": "authorized",
          "type": "bool"
        }
      ],
      "name": "DoctorAuthorizationUpdated",
      "type": "event"
    },
    {
      "anonymous": false,
      "inputs": [
        {
          "indexed": true,
          "internalType": "address",
          "name": "patient",
          "type": "address"
        },
        {
          "indexed": true,
          "internalType": "uint256",
          "name": "recordId",
          "type": "uint256"
        },
        {
          "indexed": true,
          "internalType": "bytes32",
          "name": "contentHash",
          "type": "bytes32"
        },
        {
          "indexed": false,
          "internalType": "uint256",
          "name": "date",
          "type": "uint256"
        }
      ],
      "name": "MedicalRecordAdded",
      "type": "event"
    },
    {
      "anonymous": false,
      "inputs": [
        {
          "indexed": true,
          "internalType": "address",
          "name": "patient",
          "type": "address"
        }
      ],
      "name": "PatientRegistered",
      "type": "event"
    },
    {
      "anonymous": false,
      "inputs": [
        {
          "indexed": true,
          "internalType": "address",
          "name": "patient",
          "type": "address"
        }
      ],
      "name": "ProfileUpdated",
      "type": "event"
    },
    {
      "inputs": [
        {
          "internalType": "uint256",
          "name": "",
          "type": "uint256"
        }
      ],
      "name": "appointments",
      "outputs": [
        {
          "internalType": "uint256",
          "name": "id",
          "type": "uint256"
        },
        {
          "internalType": "address",
          "name": "patient",
          "type": "address"
        },
        {
          "internalType": "address",
          "name": "doctor",
          "type": "address"
        },
        {
          "internalType": "uint256",
          "name": "scheduledAt",
          "type": "uint256"
        },
        {
          "internalType": "uint256",
          "name": "fee",
          "type": "uint256"
        },
        {
          "internalType": "string",
          "name": "reason",
          "type": "string"
        },
        {
          "internalType": "enum PatientRegistry.AppointmentStatus",
          "name": "status",
          "type": "uint8"
        },
        {
          "internalType": "bool",
          "name": "settled",
          "type": "bool"
        }
      ],
      "stateMutability": "view",
      "type": "function",
      "constant": true
    },
    {
      "inputs": [
        {
          "internalType": "address",
          "name": "",
          "type": "address"
        }
      ],
      "name": "balances",
      "outputs": [
        {
          "internalType": "uint256",
          "name": "",
          "type": "uint256"
        }
      ],
      "stateMutability": "view",
      "type": "function",
      "constant": true
    },
    {
      "inputs": [],
      "name": "nextAppointmentId",
      "outputs": [
        {
          "internalType": "uint256",
          "name": "",
          "type": "uint256"
        }
      ],
      "stateMutability": "view",
      "type": "function",
      "constant": true
    },
    {
      "inputs": [
        {
          "internalType": "address",
          "name": "",
          "type": "address"
        },
        {
          "internalType": "address",
          "name": "",
          "type": "address"
        }
      ],
      "name": "patientDoctorAuthorized",
      "outputs": [
        {
          "internalType": "bool",
          "name": "",
          "type": "bool"
        }
      ],
      "stateMutability": "view",
      "type": "function",
      "constant": true
    },
    {
      "inputs": [
        {
          "internalType": "address",
          "name": "",
          "type": "address"
        }
      ],
      "name": "patients",
      "outputs": [
        {
          "internalType": "bool",
          "name": "",
          "type": "bool"
        }
      ],
      "stateMutability": "view",
      "type": "function",
      "constant": true
    },
    {
      "inputs": [],
      "name": "trustedDoctorRegistry",
      "outputs": [
        {
          "internalType": "address",
          "name": "",
          "type": "address"
        }
      ],
      "stateMutability": "view",
      "type": "function",
      "constant": true
    },
    {
      "inputs": [
        {
          "internalType": "address",
          "name": "registry",
          "type": "address"
        }
      ],
      "name": "setTrustedDoctorRegistry",
      "outputs": [],
      "stateMutability": "nonpayable",
      "type": "function"
    },
    {
      "inputs": [
        {
          "internalType": "address",
          "name": "doctor",
          "type": "address"
        },
        {
          "internalType": "bool",
          "name": "authorized",
          "type": "bool"
        }
      ],
      "name": "setDoctorAuthorization",
      "outputs": [],
      "stateMutability": "nonpayable",
      "type": "function"
    },
    {
      "inputs": [
        {
          "internalType": "address",
          "name": "patient",
          "type": "address"
        },
        {
          "internalType": "uint256",
          "name": "amount",
          "type": "uint256"
        }
      ],
      "name": "grantInitialCoins",
      "outputs": [],
      "stateMutability": "nonpayable",
      "type": "function"
    },
    {
      "inputs": [],
      "name": "getMyBalance",
      "outputs": [
        {
          "internalType": "uint256",
          "name": "",
          "type": "uint256"
        }
      ],
      "stateMutability": "view",
      "type": "function",
      "constant": true
    },
    {
      "inputs": [
        {
          "internalType": "string",
          "name": "encryptedInfo",
          "type": "string"
        },
        {
          "internalType": "bytes32",
          "name": "profileHash",
          "type": "bytes32"
        }
      ],
      "name": "registerPatient",
      "outputs": [],
      "stateMutability": "nonpayable",
      "type": "function"
    },
    {
      "inputs": [
        {
          "internalType": "string",
          "name": "encryptedInfo",
          "type": "string"
        },
        {
          "internalType": "bytes32",
          "name": "profileHash",
          "type": "bytes32"
        }
      ],
      "name": "updateProfile",
      "outputs": [],
      "stateMutability": "nonpayable",
      "type": "function"
    },
    {
      "inputs": [
        {
          "internalType": "address",
          "name": "doctor",
          "type": "address"
        },
        {
          "internalType": "uint256",
          "name": "scheduledAt",
          "type": "uint256"
        },
        {
          "internalType": "uint256",
          "name": "fee",
          "type": "uint256"
        },
        {
          "internalType": "string",
          "name": "reason",
          "type": "string"
        }
      ],
      "name": "createAppointment",
      "outputs": [
        {
          "internalType": "uint256",
          "name": "",
          "type": "uint256"
        }
      ],
      "stateMutability": "nonpayable",
      "type": "function"
    },
    {
      "inputs": [
        {
          "internalType": "uint256",
          "name": "appointmentId",
          "type": "uint256"
        }
      ],
      "name": "cancelAppointment",
      "outputs": [],
      "stateMutability": "nonpayable",
      "type": "function"
    },
    {
      "inputs": [
        {
          "internalType": "uint256",
          "name": "appointmentId",
          "type": "uint256"
        },
        {
          "internalType": "bool",
          "name": "approved",
          "type": "bool"
        }
      ],
      "name": "respondAppointmentByDoctor",
      "outputs": [],
      "stateMutability": "nonpayable",
      "type": "function"
    },
    {
      "inputs": [
        {
          "internalType": "uint256",
          "name": "appointmentId",
          "type": "uint256"
        },
        {
          "internalType": "address",
          "name": "doctorWallet",
          "type": "address"
        },
        {
          "internalType": "bytes32",
          "name": "contentHash",
          "type": "bytes32"
        },
        {
          "internalType": "string",
          "name": "encryptedData",
          "type": "string"
        },
        {
          "internalType": "string",
          "name": "doctorName",
          "type": "string"
        }
      ],
      "name": "completeAppointmentAndAddRecordByDoctor",
      "outputs": [],
      "stateMutability": "nonpayable",
      "type": "function"
    },
    {
      "inputs": [
        {
          "internalType": "address",
          "name": "patientAddress",
          "type": "address"
        },
        {
          "internalType": "address",
          "name": "doctorWallet",
          "type": "address"
        },
        {
          "internalType": "bytes32",
          "name": "contentHash",
          "type": "bytes32"
        },
        {
          "internalType": "string",
          "name": "encryptedData",
          "type": "string"
        },
        {
          "internalType": "string",
          "name": "doctorName",
          "type": "string"
        }
      ],
      "name": "addMedicalRecordForAuthorizedDoctor",
      "outputs": [],
      "stateMutability": "nonpayable",
      "type": "function"
    },
    {
      "inputs": [
        {
          "internalType": "address",
          "name": "patientAddress",
          "type": "address"
        },
        {
          "internalType": "address",
          "name": "doctorWallet",
          "type": "address"
        },
        {
          "internalType": "string",
          "name": "encryptedAllergy",
          "type": "string"
        },
        {
          "internalType": "bytes32",
          "name": "allergyHash",
          "type": "bytes32"
        }
      ],
      "name": "addAllergyForAuthorizedDoctor",
      "outputs": [],
      "stateMutability": "nonpayable",
      "type": "function"
    },
    {
      "inputs": [
        {
          "internalType": "address",
          "name": "patientAddress",
          "type": "address"
        }
      ],
      "name": "getMyProfile",
      "outputs": [
        {
          "internalType": "string",
          "name": "encryptedInfo",
          "type": "string"
        },
        {
          "internalType": "bytes32",
          "name": "profileHash",
          "type": "bytes32"
        }
      ],
      "stateMutability": "view",
      "type": "function",
      "constant": true
    },
    {
      "inputs": [
        {
          "internalType": "address",
          "name": "patientAddress",
          "type": "address"
        }
      ],
      "name": "getMedicalRecord",
      "outputs": [
        {
          "components": [
            {
              "internalType": "uint256",
              "name": "recordId",
              "type": "uint256"
            },
            {
              "internalType": "uint256",
              "name": "date",
              "type": "uint256"
            },
            {
              "internalType": "bytes32",
              "name": "contentHash",
              "type": "bytes32"
            },
            {
              "internalType": "string",
              "name": "encryptedData",
              "type": "string"
            },
            {
              "internalType": "string",
              "name": "doctorName",
              "type": "string"
            },
            {
              "internalType": "address",
              "name": "doctorAddress",
              "type": "address"
            }
          ],
          "internalType": "struct PatientRegistry.MedicalRecord[]",
          "name": "",
          "type": "tuple[]"
        }
      ],
      "stateMutability": "view",
      "type": "function",
      "constant": true
    },
    {
      "inputs": [
        {
          "internalType": "address",
          "name": "patientAddress",
          "type": "address"
        }
      ],
      "name": "getAllergies",
      "outputs": [
        {
          "components": [
            {
              "internalType": "string",
              "name": "encryptedAllergy",
              "type": "string"
            },
            {
              "internalType": "bytes32",
              "name": "allergyHash",
              "type": "bytes32"
            }
          ],
          "internalType": "struct PatientRegistry.Allergy[]",
          "name": "",
          "type": "tuple[]"
        }
      ],
      "stateMutability": "view",
      "type": "function",
      "constant": true
    },
    {
      "inputs": [
        {
          "internalType": "uint256",
          "name": "appointmentId",
          "type": "uint256"
        }
      ],
      "name": "getAppointment",
      "outputs": [
        {
          "internalType": "uint256",
          "name": "id",
          "type": "uint256"
        },
        {
          "internalType": "address",
          "name": "patient",
          "type": "address"
        },
        {
          "internalType": "address",
          "name": "doctor",
          "type": "address"
        },
        {
          "internalType": "uint256",
          "name": "scheduledAt",
          "type": "uint256"
        },
        {
          "internalType": "uint256",
          "name": "fee",
          "type": "uint256"
        },
        {
          "internalType": "string",
          "name": "reason",
          "type": "string"
        },
        {
          "internalType": "enum PatientRegistry.AppointmentStatus",
          "name": "status",
          "type": "uint8"
        },
        {
          "internalType": "bool",
          "name": "settled",
          "type": "bool"
        }
      ],
      "stateMutability": "view",
      "type": "function",
      "constant": true
    }
  ],
  "bytecode": "0x6080604052600160075534801561001557600080fd5b50600980546001600160a01b0319163317905561291d806100376000396000f3fe608060405234801561001057600080fd5b50600436106101425760003560e01c80634c738909116100b8578063a7e644051161007c578063a7e64405146102f7578063b21ec1af1461030a578063bb609cd714610335578063c36fa12914610356578063e41db28514610369578063f010d7bf1461037c57600080fd5b80634c7389091461027b57806377620b381461029057806389dcc4a2146102bb57806390666f04146102c4578063935587e3146102e457600080fd5b806327e235e31161010a57806327e235e3146101e15780632fea1a6f1461020f57806331b85b2b1461022f5780633fe1bd9914610242578063414805f91461025557806344fd7ece1461026857600080fd5b80630869cfbc146101475780630c22e38f1461017f5780630d943da21461019457806312dc9013146101bb5780631c69a2fa146101ce575b600080fd5b61016a610155366004612037565b60016020526000908152604090205460ff1681565b60405190151581526020015b60405180910390f35b61019261018d3660046120fc565b61038f565b005b6101a76101a2366004612141565b6104a8565b6040516101769897969594939291906121d8565b6101a76101c9366004612141565b6106b3565b6101926101dc36600461223e565b610792565b6102016101ef366004612037565b60056020526000908152604090205481565b604051908152602001610176565b61022261021d366004612037565b610996565b60405161017691906122a4565b61019261023d36600461235f565b610bf2565b6101926102503660046123e7565b611163565b610192610263366004612416565b61144a565b610201610276366004612440565b61151b565b33600090815260056020526040902054610201565b61016a61029e3660046124a1565b600060208181529281526040808220909352908152205460ff1681565b61020160075481565b6102d76102d2366004612037565b6117a8565b60405161017691906124d4565b6101926102f2366004612037565b61193b565b610192610305366004612141565b611a14565b60085461031d906001600160a01b031681565b6040516001600160a01b039091168152602001610176565b610348610343366004612037565b611b34565b60405161017692919061253c565b61019261036436600461256e565b611c80565b6101926103773660046120fc565b611dc2565b61019261038a366004612591565b611f33565b3360009081526001602052604090205460ff166103c75760405162461bcd60e51b81526004016103be906125bb565b60405180910390fd5b60008251116104125760405162461bcd60e51b8152602060048201526017602482015276115b98dc9e5c1d1959081a5b999bc81c995c5d5a5c9959604a1b60448201526064016103be565b806104565760405162461bcd60e51b8152602060048201526014602482015273092dcecc2d8d2c840e0e4deccd2d8ca40d0c2e6d60631b60448201526064016103be565b33600090815260026020526040902080610470848261267b565b506001810182905560405133907fbe4ec58a792f909e102ee3d745d0c3b34a4d437a54d903c4db098d31c556422f90600090a2505050565b60008181526006602090815260408083208151610100810183528154815260018201546001600160a01b0390811694820194909452600282015490931691830191909152600381015460608381019190915260048201546080840152600582018054859485948594859490938593849384939192909160a084019161052c906125f2565b80601f0160208091040260200160405190810160405280929190818152602001828054610558906125f2565b80156105a55780601f1061057a576101008083540402835291602001916105a5565b820191906000526020600020905b81548152906001019060200180831161058857829003601f168201915b5050509183525050600682015460209091019060ff1660048111156105cc576105cc6121a0565b60048111156105dd576105dd6121a0565b815260069190910154610100900460ff161515602090910152805190915060000361061a5760405162461bcd60e51b81526004016103be9061273b565b80602001516001600160a01b0316336001600160a01b03161480610653575080604001516001600160a01b0316336001600160a01b0316145b61066f5760405162461bcd60e51b81526004016103be9061276a565b806000015181602001518260400151836060015184608001518560a001518660c001518760e001519850985098509850985098509850985050919395975091939597565b60066020526000908152604090208054600182015460028301546003840154600485015460058601805495966001600160a01b03958616969590941694929391926106fd906125f2565b80601f0160208091040260200160405190810160405280929190818152602001828054610729906125f2565b80156107765780601f1061074b57610100808354040283529160200191610776565b820191906000526020600020905b81548152906001019060200180831161075957829003601f168201915b5050506006909301549192505060ff8082169161010090041688565b6001600160a01b038416600090815260016020526040902054849060ff166107cc5760405162461bcd60e51b81526004016103be90612792565b6008546001600160a01b03166107f45760405162461bcd60e51b81526004016103be906127c2565b6008546001600160a01b0316331461081e5760405162461bcd60e51b81526004016103be90612829565b6001600160a01b038086166000908152602081815260408083209388168352929052205460ff166108615760405162461bcd60e51b81526004016103be9061276a565b60008351116108b25760405162461bcd60e51b815260206004820152601a60248201527f456e6372797074656420616c6c6572677920726571756972656400000000000060448201526064016103be565b816108f65760405162461bcd60e51b8152602060048201526014602482015273092dcecc2d8d2c840c2d8d8cae4cef240d0c2e6d60631b60448201526064016103be565b6001600160a01b038516600090815260046020908152604080832081518083019092528682528183018690528054600181018255908452919092208251600290920201908190610946908261267b565b506020918201516001909101556040518381526001600160a01b038716917fd77b2e27779d4e0a39a11f42b0d60de5b4dc88ab108a6d4589d3cbb1a7ffe68a910160405180910390a25050505050565b6001600160a01b038116600090815260016020526040902054606090829060ff166109d35760405162461bcd60e51b81526004016103be90612792565b82336001600160a01b0382161480610a0c57506001600160a01b03811660009081526020818152604080832033845290915290205460ff165b610a285760405162461bcd60e51b81526004016103be9061276a565b6001600160a01b038416600090815260036020908152604080832080548251818502810185019093528083529193909284015b82821015610be557838290600052602060002090600602016040518060c0016040529081600082015481526020016001820154815260200160028201548152602001600382018054610aac906125f2565b80601f0160208091040260200160405190810160405280929190818152602001828054610ad8906125f2565b8015610b255780601f10610afa57610100808354040283529160200191610b25565b820191906000526020600020905b815481529060010190602001808311610b0857829003601f168201915b50505050508152602001600482018054610b3e906125f2565b80601f0160208091040260200160405190810160405280929190818152602001828054610b6a906125f2565b8015610bb75780601f10610b8c57610100808354040283529160200191610bb7565b820191906000526020600020905b815481529060010190602001808311610b9a57829003601f168201915b5050509183525050600591909101546001600160a01b03166020918201529082526001929092019101610a5b565b5050505092505050919050565b6008546001600160a01b03163314610c1c5760405162461bcd60e51b81526004016103be90612829565b60008581526006602052604081208054909103610c4b5760405162461bcd60e51b81526004016103be9061273b565b6001600682015460ff166004811115610c6657610c666121a0565b14610cb35760405162461bcd60e51b815260206004820152601860248201527f4170706f696e746d656e74206e6f7420617070726f766564000000000000000060448201526064016103be565b6006810154610100900460ff1615610d0d5760405162461bcd60e51b815260206004820152601b60248201527f4170706f696e746d656e7420616c726561647920736574746c6564000000000060448201526064016103be565b60028101546001600160a01b03868116911614610d5e5760405162461bcd60e51b815260206004820152600f60248201526e088dec6e8dee440dad2e6dac2e8c6d608b1b60448201526064016103be565b60018101546001600160a01b039081166000908152602081815260408083209389168352929052205460ff16610dce5760405162461bcd60e51b8152602060048201526015602482015274111bd8dd1bdc881b9bdd08185d5d1a1bdc9a5e9959605a1b60448201526064016103be565b600481015460018201546001600160a01b03166000908152600560205260409020541015610e3e5760405162461bcd60e51b815260206004820152601a60248201527f496e73756666696369656e742070617469656e7420636f696e7300000000000060448201526064016103be565b83610e825760405162461bcd60e51b8152602060048201526014602482015273092dcecc2d8d2c840c6dedce8cadce840d0c2e6d60631b60448201526064016103be565b6000835111610ed35760405162461bcd60e51b815260206004820152601a60248201527f456e63727970746564207061796c6f616420726571756972656400000000000060448201526064016103be565b6000825111610f1b5760405162461bcd60e51b8152602060048201526014602482015273111bd8dd1bdc881b985b59481c995c5d5a5c995960621b60448201526064016103be565b600481015460018201546001600160a01b031660009081526005602052604081208054909190610f4c90849061286c565b9091555050600481015460028201546001600160a01b031660009081526005602052604081208054909190610f82908490612885565b909155505060068101805461010061ff00198216811783556003929161ffff19161760018302179055506001808201546001600160a01b0390811660009081526003602081815260408084208054825160c081018452818152428186019081529381018d8152606082018d8152608083018d9052988f1660a0830152828a0184559287529390952083516006870290910190815591519682019690965594516002860155925191939190820190611039908261267b565b506080820151600482019061104e908261267b565b5060a09190910151600590910180546001600160a01b0319166001600160a01b039283161790556002830154600184015460048501546040519081529183169216907f03256be8dcee7cd01c2e272fa93a0905b06d20364bf9cf688f12443b2c5995589060200160405180910390a36002820154600183015460048401546040519081526001600160a01b03928316929091169089907f918486f3c5ed71a96addaba4ff35f4e9322342170e3b3dfc548292bf1909c1c09060200160405180910390a46001820154604051428152869183916001600160a01b03909116907f0f66b430c5b89c26da70e21a5d286dc50ec9193585389fedc5e33518f8ec79f1906020015b60405180910390a450505050505050565b6001600160a01b038516600090815260016020526040902054859060ff1661119d5760405162461bcd60e51b81526004016103be90612792565b6008546001600160a01b03166111c55760405162461bcd60e51b81526004016103be906127c2565b6008546001600160a01b031633146111ef5760405162461bcd60e51b81526004016103be90612829565b6001600160a01b038087166000908152602081815260408083209389168352929052205460ff166112715760405162461bcd60e51b815260206004820152602660248201527f446f63746f72206e6f7420617574686f72697a656420666f7220746869732070604482015265185d1a595b9d60d21b60648201526084016103be565b836112b55760405162461bcd60e51b8152602060048201526014602482015273092dcecc2d8d2c840c6dedce8cadce840d0c2e6d60631b60448201526064016103be565b60008351116113065760405162461bcd60e51b815260206004820152601e60248201527f456e63727970746564207061796c6f616420555249207265717569726564000060448201526064016103be565b600082511161134e5760405162461bcd60e51b8152602060048201526014602482015273111bd8dd1bdc881b985b59481c995c5d5a5c995960621b60448201526064016103be565b6001600160a01b0380871660009081526003602081815260408084208054825160c081018452818152428186019081529381018c8152606082018c8152608083018c9052988e1660a083015260018084018555938852949096208651600683029091019081559251918301919091559151600282015593519093918201906113d6908261267b565b50608082015160048201906113eb908261267b565b5060a09190910151600590910180546001600160a01b0319166001600160a01b0392831617905560405142815286918391908a16907f0f66b430c5b89c26da70e21a5d286dc50ec9193585389fedc5e33518f8ec79f190602001611152565b6008546001600160a01b031633146114745760405162461bcd60e51b81526004016103be90612829565b6001600160a01b03821660009081526001602052604090205460ff166114ac5760405162461bcd60e51b81526004016103be90612792565b6001600160a01b038216600090815260056020526040812080548392906114d4908490612885565b90915550506040518181526001600160a01b038316907f88ee0498040d61f9733b4d3c5a49cca187698c7f57c5f6e90746192c6a8b7c589060200160405180910390a25050565b3360009081526001602052604081205460ff1661154a5760405162461bcd60e51b81526004016103be906125bb565b6001600160a01b0385166115915760405162461bcd60e51b815260206004820152600e60248201526d24b73b30b634b2103237b1ba37b960911b60448201526064016103be565b4284116115d95760405162461bcd60e51b815260206004820152601660248201527554696d65206d75737420626520696e2066757475726560501b60448201526064016103be565b6000831161161b5760405162461bcd60e51b815260206004820152600f60248201526e0466565206d757374206265203e203608c1b60448201526064016103be565b600780546000918261162c83612898565b919050559050604051806101000160405280828152602001336001600160a01b03168152602001876001600160a01b0316815260200186815260200185815260200184815260200160006004811115611687576116876121a0565b8152600060209182018190528381526006825260409081902083518155918301516001830180546001600160a01b03199081166001600160a01b0393841617909155918401516002840180549093169116179055606082015160038201556080820151600482015560a08201516005820190611703908261267b565b5060c082015160068201805460ff19166001836004811115611727576117276121a0565b021790555060e08201518160060160016101000a81548160ff021916908315150217905550905050856001600160a01b0316336001600160a01b0316827f068caf78579c7f586be494ce1141b1e29136581f9f6f52045172f97da6b04616888888604051611797939291906128b1565b60405180910390a495945050505050565b6001600160a01b038116600090815260016020526040902054606090829060ff166117e55760405162461bcd60e51b81526004016103be90612792565b82336001600160a01b038216148061181e57506001600160a01b03811660009081526020818152604080832033845290915290205460ff165b61183a5760405162461bcd60e51b81526004016103be9061276a565b6001600160a01b038416600090815260046020908152604080832080548251818502810185019093528083529193909284015b82821015610be557838290600052602060002090600202016040518060400160405290816000820180546118a0906125f2565b80601f01602080910402602001604051908101604052809291908181526020018280546118cc906125f2565b80156119195780601f106118ee57610100808354040283529160200191611919565b820191906000526020600020905b8154815290600101906020018083116118fc57829003601f168201915b505050505081526020016001820154815250508152602001906001019061186d565b6009546001600160a01b031633146119855760405162461bcd60e51b815260206004820152600d60248201526c27b7363c903232b83637bcb2b960991b60448201526064016103be565b6001600160a01b038116158015906119a657506008546001600160a01b0316155b6119f25760405162461bcd60e51b815260206004820152601760248201527f4261642061726773206f7220616c72656164792073657400000000000000000060448201526064016103be565b600880546001600160a01b0319166001600160a01b0392909216919091179055565b600081815260066020526040902060018101546001600160a01b03163314611a755760405162461bcd60e51b8152602060048201526014602482015273139bdd081e5bdd5c88185c1c1bda5b9d1b595b9d60621b60448201526064016103be565b6000600682015460ff166004811115611a9057611a906121a0565b1480611ab457506001600682015460ff166004811115611ab257611ab26121a0565b145b611af45760405162461bcd60e51b815260206004820152601160248201527043616e6e6f742063616e63656c206e6f7760781b60448201526064016103be565b60068101805460ff19166004179055604051339083907f075bea4ff64f07ee718af9b6e2184e3f63be344bf9bafdc03ac38d7be63cff2290600090a35050565b6001600160a01b03811660009081526001602052604081205460609190839060ff16611b725760405162461bcd60e51b81526004016103be90612792565b83336001600160a01b0382161480611bab57506001600160a01b03811660009081526020818152604080832033845290915290205460ff165b611bc75760405162461bcd60e51b81526004016103be9061276a565b6001600160a01b0385166000908152600260205260409020600181015481548291908290611bf4906125f2565b80601f0160208091040260200160405190810160405280929190818152602001828054611c20906125f2565b8015611c6d5780601f10611c4257610100808354040283529160200191611c6d565b820191906000526020600020905b815481529060010190602001808311611c5057829003601f168201915b5050505050915094509450505050915091565b6008546001600160a01b03163314611caa5760405162461bcd60e51b81526004016103be90612829565b60008281526006602052604081208054909103611cd95760405162461bcd60e51b81526004016103be9061273b565b6000600682015460ff166004811115611cf457611cf46121a0565b14611d415760405162461bcd60e51b815260206004820152601b60248201527f4170706f696e746d656e7420616c72656164792068616e646c6564000000000060448201526064016103be565b8115611d5b5760068101805460ff19166001179055611d6b565b60068101805460ff191660021790555b600281015460068201546040516001600160a01b039092169185917faa6a8a19d6966039b42a8f529be947a57b6928f888269135d07c5ef6ce5c095591611db59160ff16906128d9565b60405180910390a3505050565b3360009081526001602052604090205460ff1615611e225760405162461bcd60e51b815260206004820152601e60248201527f416c726561647920726567697374657265642061732070617469656e7421000060448201526064016103be565b6000825111611e6d5760405162461bcd60e51b8152602060048201526017602482015276115b98dc9e5c1d1959081a5b999bc81c995c5d5a5c9959604a1b60448201526064016103be565b80611eb15760405162461bcd60e51b8152602060048201526014602482015273092dcecc2d8d2c840e0e4deccd2d8ca40d0c2e6d60631b60448201526064016103be565b336000818152600160208181526040808420805460ff19169093179092558151808301835286815280820186905293835260029052902081518190611ef6908261267b565b506020919091015160019091015560405133907fc9fa2003fca4ce0dfc8cb0deae32266b715536df6685365b05b5be96ede8e49c90600090a25050565b3360009081526001602052604090205460ff16611f625760405162461bcd60e51b81526004016103be906125bb565b6001600160a01b038216611fb15760405162461bcd60e51b8152602060048201526016602482015275496e76616c696420646f63746f72206164647265737360501b60448201526064016103be565b336000818152602081815260408083206001600160a01b03871680855290835292819020805460ff191686151590811790915590519081529192917f4de1a76a09f1d48f06d7c7aa65da76a1ea09ee5c56e15e75ff08c34ace9b0c6a910160405180910390a35050565b80356001600160a01b038116811461203257600080fd5b919050565b60006020828403121561204957600080fd5b6120528261201b565b9392505050565b634e487b7160e01b600052604160045260246000fd5b600082601f83011261208057600080fd5b813567ffffffffffffffff8082111561209b5761209b612059565b604051601f8301601f19908116603f011681019082821181831017156120c3576120c3612059565b816040528381528660208588010111156120dc57600080fd5b836020870160208301376000602085830101528094505050505092915050565b6000806040838503121561210f57600080fd5b823567ffffffffffffffff81111561212657600080fd5b6121328582860161206f565b95602094909401359450505050565b60006020828403121561215357600080fd5b5035919050565b6000815180845260005b8181101561218057602081850181015186830182015201612164565b506000602082860101526020601f19601f83011685010191505092915050565b634e487b7160e01b600052602160045260246000fd5b600581106121d457634e487b7160e01b600052602160045260246000fd5b9052565b8881526001600160a01b03888116602083015287166040820152606081018690526080810185905261010060a082018190526000906122198382018761215a565b91505061222960c08301856121b6565b82151560e08301529998505050505050505050565b6000806000806080858703121561225457600080fd5b61225d8561201b565b935061226b6020860161201b565b9250604085013567ffffffffffffffff81111561228757600080fd5b6122938782880161206f565b949793965093946060013593505050565b60006020808301818452808551808352604092508286019150828160051b87010184880160005b8381101561235157603f19898403018552815160c08151855288820151898601528782015188860152606080830151828288015261230b8388018261215a565b9250505060808083015186830382880152612326838261215a565b60a0948501516001600160a01b031697909401969096525050948701949250908601906001016122cb565b509098975050505050505050565b600080600080600060a0868803121561237757600080fd5b853594506123876020870161201b565b935060408601359250606086013567ffffffffffffffff808211156123ab57600080fd5b6123b789838a0161206f565b935060808801359150808211156123cd57600080fd5b506123da8882890161206f565b9150509295509295909350565b600080600080600060a086880312156123ff57600080fd5b6124088661201b565b94506123876020870161201b565b6000806040838503121561242957600080fd5b6124328361201b565b946020939093013593505050565b6000806000806080858703121561245657600080fd5b61245f8561201b565b93506020850135925060408501359150606085013567ffffffffffffffff81111561248957600080fd5b6124958782880161206f565b91505092959194509250565b600080604083850312156124b457600080fd5b6124bd8361201b565b91506124cb6020840161201b565b90509250929050565b60006020808301818452808551808352604092508286019150828160051b87010184880160005b8381101561235157888303603f190185528151805187855261251f8886018261215a565b9189015194890194909452948701949250908601906001016124fb565b60408152600061254f604083018561215a565b90508260208301529392505050565b8035801515811461203257600080fd5b6000806040838503121561258157600080fd5b823591506124cb6020840161255e565b600080604083850312156125a457600080fd5b6125ad8361201b565b91506124cb6020840161255e565b60208082526017908201527f4f6e6c7920726567697374657265642070617469656e74000000000000000000604082015260600190565b600181811c9082168061260657607f821691505b60208210810361262657634e487b7160e01b600052602260045260246000fd5b50919050565b601f82111561267657600081815260208120601f850160051c810160208610156126535750805b601f850160051c820191505b818110156126725782815560010161265f565b5050505b505050565b815167ffffffffffffffff81111561269557612695612059565b6126a9816126a384546125f2565b8461262c565b602080601f8311600181146126de57600084156126c65750858301515b600019600386901b1c1916600185901b178555612672565b600085815260208120601f198616915b8281101561270d578886015182559484019460019091019084016126ee565b508582101561272b5787850151600019600388901b60f8161c191681555b5050505050600190811b01905550565b602080825260159082015274105c1c1bda5b9d1b595b9d081b9bdd08199bdd5b99605a1b604082015260600190565b6020808252600e908201526d139bdd08185d5d1a1bdc9a5e995960921b604082015260600190565b60208082526016908201527514185d1a595b9d081b9bdd081c9959da5cdd195c995960521b604082015260600190565b60208082526041908201527f50617469656e7452656769737472793a206c696e6b20446f63746f725265676960408201527f73747279207669612073657454727573746564446f63746f72526567697374726060820152607960f81b608082015260a00190565b6020808252601390820152724f6e6c7920446f63746f72526567697374727960681b604082015260600190565b634e487b7160e01b600052601160045260246000fd5b8181038181111561287f5761287f612856565b92915050565b8082018082111561287f5761287f612856565b6000600182016128aa576128aa612856565b5060010190565b8381528260208201526060604082015260006128d0606083018461215a565b95945050505050565b6020810161287f82846121b656fea26469706673582212200c0a9add1752fa3e62f4a8c6b3e08551e275daa4978da74c592826868a4dfebc64736f6c63430008130033",
  "immutableReferences": {},
  "source": "// SPDX-License-Identifier: GPL-3.0\r\npragma solidity ^0.8.19;\r\n\r\ncontract PatientRegistry {\r\n    // patient => doctor => whether this patient authorized this doctor\r\n    mapping(address => mapping(address => bool)) public patientDoctorAuthorized;\r\n    mapping(address => bool) public patients;\r\n\r\n    // Basic info (ciphertext + integrity hash only)\r\n    struct Patient {\r\n        string encryptedInfo;\r\n        bytes32 profileHash;\r\n    }\r\n\r\n    // Medical record\r\n    struct MedicalRecord {\r\n        uint256 recordId;\r\n        uint256 date;\r\n        bytes32 contentHash;\r\n        string encryptedData;\r\n        string doctorName;\r\n        address doctorAddress;\r\n    }\r\n\r\n    // Allergies\r\n    struct Allergy {\r\n        string encryptedAllergy;\r\n        bytes32 allergyHash;\r\n    }\r\n\r\n    enum AppointmentStatus {\r\n        Requested,\r\n        Approved,\r\n        Rejected,\r\n        Completed,\r\n        Cancelled\r\n    }\r\n\r\n    struct Appointment {\r\n        uint256 id;\r\n        address patient;\r\n        address doctor;\r\n        uint256 scheduledAt;\r\n        uint256 fee;\r\n        string reason;\r\n        AppointmentStatus status;\r\n        bool settled;\r\n    }\r\n    \r\n    \r\n    mapping(address => Patient) private profiles;\r\n    mapping(address => MedicalRecord[]) private medicalHistory;\r\n    mapping(address => Allergy[]) private allergyHistory;\r\n    mapping(address => uint256) public balances;\r\n    mapping(uint256 => Appointment) public appointments;\r\n    uint256 public nextAppointmentId = 1;\r\n\r\n    address public trustedDoctorRegistry;\r\n    address private _deployer;\r\n\r\n    // Logging\r\n    event DoctorAuthorizationUpdated(address indexed patient, address indexed doctor, bool authorized);\r\n    event PatientRegistered(address indexed patient);\r\n    event ProfileUpdated(address indexed patient);\r\n    event MedicalRecordAdded(\r\n        address indexed patient,\r\n        uint256 indexed recordId,\r\n        bytes32 indexed contentHash,\r\n        uint256 date\r\n    );\r\n    event AllergyAdded(address indexed patient, bytes32 allergyHash);\r\n    event CoinsGranted(address indexed patient, uint256 amount);\r\n    event CoinsTransferred(address indexed from, address indexed to, uint256 amount);\r\n    event AppointmentCreated(\r\n        uint256 indexed appointmentId,\r\n        address indexed patient,\r\n        address indexed doctor,\r\n        uint256 scheduledAt,\r\n        uint256 fee,\r\n        string reason\r\n    );\r\n    event AppointmentResponded(\r\n        uint256 indexed appointmentId,\r\n        address indexed doctor,\r\n        AppointmentStatus status\r\n    );\r\n    event AppointmentCancelled(uint256 indexed appointmentId, address indexed patient);\r\n    event AppointmentCompleted(\r\n        uint256 indexed appointmentId,\r\n        address indexed patient,\r\n        address indexed doctor,\r\n        uint256 fee\r\n    );\r\n\r\n    constructor() {\r\n        _deployer = msg.sender;\r\n    }\r\n\r\n    function setTrustedDoctorRegistry(address registry) external {\r\n        require(msg.sender == _deployer, \"Only deployer\");\r\n        require(registry != address(0) && trustedDoctorRegistry == address(0), \"Bad args or already set\");\r\n        trustedDoctorRegistry = registry;\r\n    }\r\n\r\n    modifier onlyPatient() {\r\n        require(patients[msg.sender], \"Only registered patient\");\r\n        _;\r\n    }\r\n\r\n    // Verify access right\r\n    modifier onlyAuthorizedDoctorOrSelf(address patientAddress) {\r\n        require(\r\n            msg.sender == patientAddress || patientDoctorAuthorized[patientAddress][msg.sender],\r\n            \"Not authorized\"\r\n        );\r\n        _;\r\n    }\r\n\r\n    modifier patientExists(address patientAddress) {\r\n        require(patients[patientAddress], \"Patient not registered\");\r\n        _;\r\n    }\r\n\r\n    // DoctorAuthorization\r\n    function setDoctorAuthorization(address doctor, bool authorized) external onlyPatient {\r\n        require(doctor != address(0), \"Invalid doctor address\");\r\n        patientDoctorAuthorized[msg.sender][doctor] = authorized;\r\n        emit DoctorAuthorizationUpdated(msg.sender, doctor, authorized);\r\n    }\r\n\r\n    function grantInitialCoins(address patient, uint256 amount) external {\r\n        require(msg.sender == trustedDoctorRegistry, \"Only DoctorRegistry\");\r\n        require(patients[patient], \"Patient not registered\");\r\n        balances[patient] += amount;\r\n        emit CoinsGranted(patient, amount);\r\n    }\r\n\r\n    function getMyBalance() external view returns (uint256) {\r\n        return balances[msg.sender];\r\n    }\r\n\r\n    function registerPatient(string memory encryptedInfo, bytes32 profileHash) public {\r\n        require(!patients[msg.sender], \"Already registered as patient!\");\r\n        require(bytes(encryptedInfo).length > 0, \"Encrypted info required\");\r\n        require(profileHash != bytes32(0), \"Invalid profile hash\");\r\n\r\n        patients[msg.sender] = true;\r\n        profiles[msg.sender] = Patient({encryptedInfo: encryptedInfo, profileHash: profileHash});\r\n\r\n        emit PatientRegistered(msg.sender);\r\n    }\r\n\r\n    function updateProfile(string memory encryptedInfo, bytes32 profileHash) public onlyPatient {\r\n        require(bytes(encryptedInfo).length > 0, \"Encrypted info required\");\r\n        require(profileHash != bytes32(0), \"Invalid profile hash\");\r\n\r\n        Patient storage profile = profiles[msg.sender];\r\n        profile.encryptedInfo = encryptedInfo;\r\n        profile.profileHash = profileHash;\r\n\r\n        emit ProfileUpdated(msg.sender);\r\n    }\r\n\r\n    function createAppointment(\r\n        address doctor,\r\n        uint256 scheduledAt,\r\n        uint256 fee,\r\n        string memory reason\r\n    ) external onlyPatient returns (uint256) {\r\n        require(doctor != address(0), \"Invalid doctor\");\r\n        require(scheduledAt > block.timestamp, \"Time must be in future\");\r\n        require(fee > 0, \"Fee must be > 0\");\r\n\r\n        uint256 appointmentId = nextAppointmentId++;\r\n        appointments[appointmentId] = Appointment({\r\n            id: appointmentId,\r\n            patient: msg.sender,\r\n            doctor: doctor,\r\n            scheduledAt: scheduledAt,\r\n            fee: fee,\r\n            reason: reason,\r\n            status: AppointmentStatus.Requested,\r\n            settled: false\r\n        });\r\n\r\n        emit AppointmentCreated(appointmentId, msg.sender, doctor, scheduledAt, fee, reason);\r\n        return appointmentId;\r\n    }\r\n\r\n    function cancelAppointment(uint256 appointmentId) external {\r\n        Appointment storage appt = appointments[appointmentId];\r\n        require(appt.patient == msg.sender, \"Not your appointment\");\r\n        require(\r\n            appt.status == AppointmentStatus.Requested || appt.status == AppointmentStatus.Approved,\r\n            \"Cannot cancel now\"\r\n        );\r\n\r\n        appt.status = AppointmentStatus.Cancelled;\r\n        emit AppointmentCancelled(appointmentId, msg.sender);\r\n    }\r\n\r\n    function respondAppointmentByDoctor(uint256 appointmentId, bool approved) external {\r\n        require(msg.sender == trustedDoctorRegistry, \"Only DoctorRegistry\");\r\n        Appointment storage appt = appointments[appointmentId];\r\n        require(appt.id != 0, \"Appointment not found\");\r\n        require(appt.status == AppointmentStatus.Requested, \"Appointment already handled\");\r\n\r\n        if (approved) {\r\n            appt.status = AppointmentStatus.Approved;\r\n        } else {\r\n            appt.status = AppointmentStatus.Rejected;\r\n        }\r\n\r\n        emit AppointmentResponded(appointmentId, appt.doctor, appt.status);\r\n    }\r\n\r\n    function completeAppointmentAndAddRecordByDoctor(\r\n        uint256 appointmentId,\r\n        address doctorWallet,\r\n        bytes32 contentHash,\r\n        string memory encryptedData,\r\n        string memory doctorName\r\n    ) external {\r\n        require(msg.sender == trustedDoctorRegistry, \"Only DoctorRegistry\");\r\n        Appointment storage appt = appointments[appointmentId];\r\n        require(appt.id != 0, \"Appointment not found\");\r\n        require(appt.status == AppointmentStatus.Approved, \"Appointment not approved\");\r\n        require(!appt.settled, \"Appointment already settled\");\r\n        require(appt.doctor == doctorWallet, \"Doctor mismatch\");\r\n        require(patientDoctorAuthorized[appt.patient][doctorWallet], \"Doctor not authorized\");\r\n        require(balances[appt.patient] >= appt.fee, \"Insufficient patient coins\");\r\n        require(contentHash != bytes32(0), \"Invalid content hash\");\r\n        require(bytes(encryptedData).length > 0, \"Encrypted payload required\");\r\n        require(bytes(doctorName).length > 0, \"Doctor name required\");\r\n\r\n        balances[appt.patient] -= appt.fee;\r\n        balances[appt.doctor] += appt.fee;\r\n        appt.settled = true;\r\n        appt.status = AppointmentStatus.Completed;\r\n\r\n        uint256 recordId = medicalHistory[appt.patient].length;\r\n        medicalHistory[appt.patient].push(\r\n            MedicalRecord({\r\n                recordId: recordId,\r\n                date: block.timestamp,\r\n                contentHash: contentHash,\r\n                encryptedData: encryptedData,\r\n                doctorName: doctorName,\r\n                doctorAddress: doctorWallet\r\n            })\r\n        );\r\n\r\n        emit CoinsTransferred(appt.patient, appt.doctor, appt.fee);\r\n        emit AppointmentCompleted(appointmentId, appt.patient, appt.doctor, appt.fee);\r\n        emit MedicalRecordAdded(appt.patient, recordId, contentHash, block.timestamp);\r\n    }\r\n\r\n    // Only authorized doctor\r\n    function addMedicalRecordForAuthorizedDoctor(\r\n        address patientAddress,\r\n        address doctorWallet,\r\n        bytes32 contentHash,\r\n        string memory encryptedData,\r\n        string memory doctorName\r\n    ) external patientExists(patientAddress) {\r\n        require(trustedDoctorRegistry != address(0), \"PatientRegistry: link DoctorRegistry via setTrustedDoctorRegistry\");\r\n        require(msg.sender == trustedDoctorRegistry, \"Only DoctorRegistry\");\r\n        require(patientDoctorAuthorized[patientAddress][doctorWallet], \"Doctor not authorized for this patient\");\r\n        require(contentHash != bytes32(0), \"Invalid content hash\");\r\n        require(bytes(encryptedData).length > 0, \"Encrypted payload URI required\");\r\n        require(bytes(doctorName).length > 0, \"Doctor name required\");\r\n\r\n        uint256 recordId = medicalHistory[patientAddress].length;\r\n        medicalHistory[patientAddress].push(\r\n            MedicalRecord({\r\n                recordId: recordId,\r\n                date: block.timestamp,\r\n                contentHash: contentHash,\r\n                encryptedData: encryptedData,\r\n                doctorName: doctorName,\r\n                doctorAddress: doctorWallet\r\n            })\r\n        );\r\n\r\n        emit MedicalRecordAdded(patientAddress, recordId, contentHash, block.timestamp);\r\n    }\r\n\r\n\r\n    // Must be authorized by the patient\r\n    function addAllergyForAuthorizedDoctor(\r\n        address patientAddress,\r\n        address doctorWallet,\r\n        string memory encryptedAllergy,\r\n        bytes32 allergyHash\r\n    ) external patientExists(patientAddress) {\r\n        require(trustedDoctorRegistry != address(0), \"PatientRegistry: link DoctorRegistry via setTrustedDoctorRegistry\");\r\n        require(msg.sender == trustedDoctorRegistry, \"Only DoctorRegistry\");\r\n        require(patientDoctorAuthorized[patientAddress][doctorWallet], \"Not authorized\");\r\n        require(bytes(encryptedAllergy).length > 0, \"Encrypted allergy required\");\r\n        require(allergyHash != bytes32(0), \"Invalid allergy hash\");\r\n\r\n        allergyHistory[patientAddress].push(\r\n            Allergy({encryptedAllergy: encryptedAllergy, allergyHash: allergyHash})\r\n        );\r\n\r\n        emit AllergyAdded(patientAddress, allergyHash);\r\n    }\r\n\r\n    function getMyProfile(\r\n        address patientAddress\r\n    )\r\n        external\r\n        view\r\n        patientExists(patientAddress)\r\n        onlyAuthorizedDoctorOrSelf(patientAddress)\r\n        returns (string memory encryptedInfo, bytes32 profileHash)\r\n    {\r\n        Patient storage p = profiles[patientAddress];\r\n        return (p.encryptedInfo, p.profileHash);\r\n    }\r\n\r\n    function getMedicalRecord(\r\n        address patientAddress\r\n    ) external view patientExists(patientAddress) onlyAuthorizedDoctorOrSelf(patientAddress) returns (MedicalRecord[] memory) {\r\n        return medicalHistory[patientAddress];\r\n    }\r\n\r\n    function getAllergies(\r\n        address patientAddress\r\n    ) external view patientExists(patientAddress) onlyAuthorizedDoctorOrSelf(patientAddress) returns (Allergy[] memory) {\r\n        return allergyHistory[patientAddress];\r\n    }\r\n\r\n    function getAppointment(\r\n        uint256 appointmentId\r\n    )\r\n        external\r\n        view\r\n        returns (\r\n            uint256 id,\r\n            address patient,\r\n            address doctor,\r\n            uint256 scheduledAt,\r\n            uint256 fee,\r\n            string memory reason,\r\n            AppointmentStatus status,\r\n            bool settled\r\n        )\r\n    {\r\n        Appointment memory appt = appointments[appointmentId];\r\n        require(appt.id != 0, \"Appointment not found\");\r\n        require(msg.sender == appt.patient || msg.sender == appt.doctor, \"Not authorized\");\r\n        return (\r\n            appt.id,\r\n            appt.patient,\r\n            appt.doctor,\r\n            appt.scheduledAt,\r\n            appt.fee,\r\n            appt.reason,\r\n            appt.status,\r\n            appt.settled\r\n        );\r\n    }\r\n}\r\n\r\ncontract DoctorRegistry {\r\n    // Basic info\r\n    struct Doctor {\r\n        string name;\r\n        string education;\r\n        string license;\r\n        string affiliatedComp;\r\n        string phone;\r\n        string gender;\r\n        string title;\r\n        string specialties;\r\n        string encryptionPublicKey;\r\n    }\r\n\r\n    mapping(address => Doctor) private profiles;\r\n    mapping(address => bool) public doctors;\r\n\r\n    modifier onlyRegisteredDoctor() {\r\n        require(doctors[msg.sender], \"Only registered doctor\");\r\n        _;\r\n    }\r\n    // Logging\r\n    event DoctorRegistered(address indexed doctor);\r\n    event DoctorUpdated(address indexed doctor);\r\n    event DoctorPublicKeyUpdated(address indexed doctor);\r\n\r\n    function registerDoctor(\r\n        string memory name,\r\n        string memory education,\r\n        string memory license,\r\n        string memory affiliatedComp,\r\n        string memory title,\r\n        string memory phone,\r\n        string memory gender,\r\n        string memory specialties\r\n    ) public {\r\n        require(!doctors[msg.sender], \"Already registered as doctor!\");\r\n        require(bytes(name).length > 0, \"Name required\");\r\n        doctors[msg.sender] = true;\r\n        profiles[msg.sender] = Doctor({\r\n            name: name,\r\n            education: education,\r\n            license: license,\r\n            affiliatedComp: affiliatedComp,\r\n            title: title,\r\n            phone: phone,\r\n            gender: gender,\r\n            specialties: specialties,\r\n            encryptionPublicKey: \"\"\r\n        });\r\n        emit DoctorRegistered(msg.sender);\r\n    }\r\n\r\n    function updateDoctor(\r\n        string memory name,\r\n        string memory education,\r\n        string memory license,\r\n        string memory affiliatedComp,\r\n        string memory title,\r\n        string memory phone,\r\n        string memory gender,\r\n        string memory specialties\r\n    ) public onlyRegisteredDoctor {\r\n        require(bytes(name).length > 0, \"Name required\");\r\n        Doctor storage profile = profiles[msg.sender];\r\n        profile.name = name;\r\n        profile.education = education;\r\n        profile.license = license;\r\n        profile.affiliatedComp = affiliatedComp;\r\n        profile.title = title;\r\n        profile.phone = phone;\r\n        profile.gender = gender;\r\n        profile.specialties = specialties;\r\n        emit DoctorUpdated(msg.sender);\r\n    }\r\n\r\n    function getDoctorProfile(\r\n        address doctorAddress\r\n    )\r\n        external\r\n        view\r\n        returns (\r\n            string memory name,\r\n            string memory education,\r\n            string memory license,\r\n            string memory affiliatedComp,\r\n            string memory phone,\r\n            string memory gender,\r\n            string memory title,\r\n            string memory specialties\r\n        )\r\n    {\r\n        require(doctors[doctorAddress], \"Doctor not found!\");\r\n        Doctor storage profile = profiles[doctorAddress];\r\n        return (\r\n            profile.name,\r\n            profile.education,\r\n            profile.license,\r\n            profile.affiliatedComp,\r\n            profile.title,\r\n            profile.phone,\r\n            profile.gender,\r\n            profile.specialties\r\n        );\r\n    }\r\n\r\n    function setDoctorPublicKey(string memory encryptionPublicKey) external onlyRegisteredDoctor {\r\n        require(bytes(encryptionPublicKey).length > 0, \"Public key required\");\r\n        profiles[msg.sender].encryptionPublicKey = encryptionPublicKey;\r\n        emit DoctorPublicKeyUpdated(msg.sender);\r\n    }\r\n\r\n    function getDoctorPublicKey(address doctorAddress) external view returns (string memory) {\r\n        require(doctors[doctorAddress], \"Doctor not found!\");\r\n        return profiles[doctorAddress].encryptionPublicKey;\r\n    }\r\n\r\n    // Registered doctor adds record for patient with authorization\r\n    function addMedicalRecordByDoctor(\r\n        PatientRegistry registry,\r\n        address patientAddress,\r\n        bytes32 contentHash,\r\n        string memory encryptedData\r\n    ) public onlyRegisteredDoctor {\r\n        require(registry.patients(patientAddress), \"Patient not registered\");\r\n        require(registry.patientDoctorAuthorized(patientAddress, msg.sender), \"Not authorized for this patient\");\r\n        string memory doctorName = profiles[msg.sender].name;\r\n        registry.addMedicalRecordForAuthorizedDoctor(patientAddress, msg.sender, contentHash, encryptedData, doctorName);\r\n    }\r\n\r\n    // Registered doctor adds record for patient with authorization\r\n    function addAllergyByDoctor(\r\n        PatientRegistry registry,\r\n        address patientAddress,\r\n        string memory encryptedAllergy,\r\n        bytes32 allergyHash\r\n    ) public onlyRegisteredDoctor {\r\n        require(registry.patients(patientAddress), \"Patient not registered\");\r\n        require(registry.patientDoctorAuthorized(patientAddress, msg.sender), \"Not authorized for this patient\");\r\n        registry.addAllergyForAuthorizedDoctor(patientAddress, msg.sender, encryptedAllergy, allergyHash);\r\n    }\r\n\r\n    function respondAppointment(\r\n        PatientRegistry registry,\r\n        uint256 appointmentId,\r\n        bool approved\r\n    ) external onlyRegisteredDoctor {\r\n        (\r\n            uint256 id,\r\n            ,\r\n            address doctor,\r\n            ,\r\n            ,\r\n            ,\r\n            ,\r\n        ) = registry.appointments(appointmentId);\r\n\r\n        require(id != 0, \"Appointment not found\");\r\n        require(doctor == msg.sender, \"Not assigned doctor\");\r\n        registry.respondAppointmentByDoctor(appointmentId, approved);\r\n    }\r\n\r\n    function completeAppointmentAndAddMedicalRecord(\r\n        PatientRegistry registry,\r\n        uint256 appointmentId,\r\n        bytes32 contentHash,\r\n        string memory encryptedData\r\n    ) external onlyRegisteredDoctor {\r\n        (\r\n            uint256 id,\r\n            ,\r\n            address doctor,\r\n            ,\r\n            ,\r\n            ,\r\n            ,\r\n        ) = registry.appointments(appointmentId);\r\n\r\n        require(id != 0, \"Appointment not found\");\r\n        require(doctor == msg.sender, \"Not assigned doctor\");\r\n        string memory doctorName = profiles[msg.sender].name;\r\n        registry.completeAppointmentAndAddRecordByDoctor(\r\n            appointmentId,\r\n            msg.sender,\r\n            contentHash,\r\n            encryptedData,\r\n            doctorName\r\n        );\r\n    }\r\n\r\n    function grantPatientInitialCoins(\r\n        PatientRegistry registry,\r\n        address patient,\r\n        uint256 amount\r\n    ) external {\r\n        registry.grantInitialCoins(patient, amount);\r\n    }\r\n}\r\n",
  "sourcePath": "/home/laitsztsun/Downloads/S431F-Blockchain-combined4/contracts/PatientDoctor.sol",
  "compiler": {
    "name": "solc",
    "version": "0.8.19+commit.7dd6d404.Emscripten.clang"
  },
  "schemaVersion": "3.4.16",
  "updatedAt": "2026-04-06T15:35:35.362Z",
  "networkType": "ethereum",
  "devdoc": {
    "kind": "dev",
    "methods": {},
    "version": 1
  },
  "userdoc": {
    "kind": "user",
    "methods": {},
    "version": 1
  }
}